:03000000020016E5
:1000130031DD32C2B475A884D28A758902754B0367
:0F002300754C04750300750200754E01754F0191
:10003200752100C208C209C20A752000C21C7830AC
:100042007918760008D9FB753001753101753229AE
:0F00520075333D7534817535817536BC7537242E
:0F00610075387875393C753A28753B34753C7F96
:0F007000753D3C753E00753F00754001754101BF
:0F007F0075421575430175440075450175463C82
:0F008E007547007D08A930AA38AB40A801864805
:0F009D00A8028649A803864A7408C39DF528C3A4
:1000AC007C081C8C250CE54A13922DF54AE5491366
:1000BC00922CF549E54813922BF5488525A0A241D1
:0F00CC0092A6A24292A7A240929785128DD2B41B
:0E00DB0031D0C2B4DCCD090A0BDDB31201F541
:1000E9001200EE0191302310E520A2E29224A2E051
:0E00F90092E2A22492E0F521154FE54F70052A
:10010700754F30D21D154EE54E7005754E20B21C49
:0F011700301D46E50245036040317EE502254B71
:10012600B40805754B00800AB4FF05754B078002BD
:0E013600F54BE503254CB40805754C00800A16
:10014400B4FF05754C078002F54CA2029208A20187
:0E0154009209A200920A317EC21D801DC021B8
:0F016200201C08C20AC208C209800CA20292081F
:0F017100A2019209A200920A317ED02122C00081
:10018000C0017930E54C29F8E6AF4BBF000280088A
:10019000C04B23D54BFCD04BC3339210A208921115
:1001A000A2109208A21113AF4BBF00028008C04BEF
:1001B00003D54BFCD04BF6B9400BE5212323F521A9
:1001C000D001D00022740829F9E52103F52180B47B
:0F01D000C28C758A00D28CC28D308DFD22C20880
:0F01DF00C209C20AC004C0007C1878307600083C
:1001EE00DCFBD000D00422D291786F75700FC293D1
:0F01FE00C291D293A29233C50733C507D570EFD4
:10020D00F50653070FD291A60718B865DF75700F65
:0E021D00C293C291D293A29533C50333C50399
:0F022B00D570EFF50253030FD29175700FC29388
:0F023A00C291D293A29433C50533C505D570EF99
:10024900F50453050FD291E453030C53050CE50350
:0E025900B40C047A018014B400047AFF800D06
:0F026700B408047A008006B404037A00E4E505C5
:0E027600B40C047BFF8013B400047B01800CE9
:10028400B408047B008005B404027B00E5077865AC
:10029400790A0886F0B5F01AD9F8E507C313700295
:0F02A4005010F520F4A2E092B0A2E192B1A2E2D4
:0B02B30092B2C3A290B3929692232255
:00000001FF
